:100000000C943E000C9448000C9448000C9448005A
:100010000C946C000C9448000C9448000C9448001C
:100020000C9448000C9448000C9448000C94480030
:100030000C9448000C9448000C9448000C94480020
:100040000C9448000C9448000C9462000C944800F6
:100050000C9448000C9448000C9448000C94480000
:100060000C9448000C9448000C9448000C944800F0
:100070000C9448000C9448000C94480011241FBEB6
:10008000CFEFD8E0DEBFCDBF0E94BD000C94DF01F2
:100090000C940000089A109808953E9A0895249AA6
:1000A000259A089584B5836884BDEEE6F0E08081EA
:1000B00081608083789485B5816085BD239A219A7B
:1000C000229A08951F920F920FB60F9211240F904B
:1000D0000FBE0F901F9018951F920F920FB60F92A0
:1000E0001124019902C0109801C0109A0F900FBE00
:1000F0000F901F901895EBE6F0E08081826080837E
:10010000E8E6F0E080818160808308951092C50068
:1001100087E68093C40088E18093C100E2ECF0E0C0
:100120008081877F808380818460808380818062FA
:10013000808308959091C00095FFFCCF8093C60006
:1001400008958091C00087FFFCCF8091C60008957C
:10015000CF93DF93EC018991882319F00E949A00D4
:10016000FACFDF91CF9108959091C00095FFFCCF19
:100170008093C60080E090E008950E9452000E94A3
:100180004F000E944D000E944A000E9486000E947B
:100190007B0056985E9A579A5B9AC12CD12C7601B7
:1001A000C1E00E94A100883309F49AC08CF5833322
:1001B00009F47AC0DCF4803309F49FC054F48D3222
:1001C00009F095C0C12CD12C8FE7E82E83E4F82EDE
:1001D00097C0813309F44AC0823309F088C0C12C2A
:1001E000D12CECE4EE2EE2E4FE2E8AC0853309F435
:1001F00069C00CF460C0863309F46BC0873309F022
:1002000076C0C12CD12C32E3E32E33E4F32E78C038
:100210008C36E1F1ACF4833609F46DC054F48933C3
:1002200009F065C0C12CD12C96E6E92E93E4F92E95
:1002300067C0863681F1883609F059C0469A60C099
:100240008737D9F064F4823721F1833709F04FC042
:10025000C701B6010E94870167BD2A9A20C088376E
:1002600001F18A3709F043C02A9819C0C12CD12C5A
:10027000F8ECEF2EF1E4FF2E43C05F9AC701B60100
:100280000E94870167BD299A2A983AC02C9A2D9816
:1002900037C02D9A07C082B18C2782B931C0299806
:1002A0002FC02D982C982CC0C12CD12C78E9E72E8A
:1002B00072E4F72E25C0C12CD12C6CECE62E62E442
:1002C000F62E1EC0C12CD12C5EEFE52E52E4F52E89
:1002D00017C0C12CD12C49E1E42E43E4F42E10C008
:1002E000C12CD12C2CE4E22E23E4F22E09C0299853
:1002F0002A982D982C98469803C0C12CD12C7601B1
:100300008FE19EE40197F1F700C000004ACF0E9400
:10031000BE0188F09F5798F0B92F9927B751B0F0D8
:10032000E1F0660F771F881F991F1AF0BA95C9F779
:1003300014C0B13091F00E94D801B1E008950C943E
:10034000D801672F782F8827B85F39F0B93FCCF3F1
:10035000869577956795B395D9F73EF490958095F6
:10036000709561957F4F8F4F9F4F089557FD90581F
:10037000440F551F59F05F3F71F04795880F97FB69
:10038000991F61F09F3F79F0879508951216130623
:100390001406551FF2CF4695F1DF08C01616170652
:1003A0001806991FF1CF8695710561050894089587
:1003B000E894BB2766277727CB0197F90895F8942F
:0203C000FFCF6D
:00000001FF
